{
  "_format": "hh-sol-artifact-1",
  "contractName": "Raffle",
  "sourceName": "contracts/Raffle.sol",
  "abi": [
    {
      "inputs": [
        {
          "internalType": "address",
          "name": "vrfCoordinatorV2",
          "type": "address"
        },
        {
          "internalType": "uint256",
          "name": "entranceFee",
          "type": "uint256"
        },
        {
          "internalType": "bytes32",
          "name": "gasLane",
          "type": "bytes32"
        },
        {
          "internalType": "uint64",
          "name": "subscriptionId",
          "type": "uint64"
        },
        {
          "internalType": "uint32",
          "name": "callbackGasLimit",
          "type": "uint32"
        },
        {
          "internalType": "uint256",
          "name": "interval",
          "type": "uint256"
        }
      ],
      "stateMutability": "nonpayable",
      "type": "constructor"
    },
    {
      "inputs": [
        {
          "internalType": "address",
          "name": "have",
          "type": "address"
        },
        {
          "internalType": "address",
          "name": "want",
          "type": "address"
        }
      ],
      "name": "OnlyCoordinatorCanFulfill",
      "type": "error"
    },
    {
      "inputs": [],
      "name": "Raffle__NotEnoughEthEntered",
      "type": "error"
    },
    {
      "inputs": [],
      "name": "Raffle__NotOpen",
      "type": "error"
    },
    {
      "inputs": [],
      "name": "Raffle__TransferFailed",
      "type": "error"
    },
    {
      "inputs": [
        {
          "internalType": "uint256",
          "name": "currentBalance",
          "type": "uint256"
        },
        {
          "internalType": "uint256",
          "name": "numPlayers",
          "type": "uint256"
        },
        {
          "internalType": "uint256",
          "name": "raffleState",
          "type": "uint256"
        }
      ],
      "name": "Raffle__UpkeepNotNeeded",
      "type": "error"
    },
    {
      "anonymous": false,
      "inputs": [
        {
          "indexed": true,
          "internalType": "address",
          "name": "player",
          "type": "address"
        }
      ],
      "name": "RaffleEntered",
      "type": "event"
    },
    {
      "anonymous": false,
      "inputs": [
        {
          "indexed": true,
          "internalType": "uint256",
          "name": "requestId",
          "type": "uint256"
        }
      ],
      "name": "RequestedRaffleWinner",
      "type": "event"
    },
    {
      "anonymous": false,
      "inputs": [
        {
          "indexed": true,
          "internalType": "address",
          "name": "winner",
          "type": "address"
        }
      ],
      "name": "WinnerPicked",
      "type": "event"
    },
    {
      "inputs": [
        {
          "internalType": "bytes",
          "name": "",
          "type": "bytes"
        }
      ],
      "name": "checkUpkeep",
      "outputs": [
        {
          "internalType": "bool",
          "name": "upkeepNeeded",
          "type": "bool"
        },
        {
          "internalType": "bytes",
          "name": "",
          "type": "bytes"
        }
      ],
      "stateMutability": "nonpayable",
      "type": "function"
    },
    {
      "inputs": [],
      "name": "enterRaffle",
      "outputs": [],
      "stateMutability": "payable",
      "type": "function"
    },
    {
      "inputs": [],
      "name": "getEntranceFee",
      "outputs": [
        {
          "internalType": "uint256",
          "name": "",
          "type": "uint256"
        }
      ],
      "stateMutability": "view",
      "type": "function"
    },
    {
      "inputs": [],
      "name": "getLatestTimeStamp",
      "outputs": [
        {
          "internalType": "uint256",
          "name": "",
          "type": "uint256"
        }
      ],
      "stateMutability": "view",
      "type": "function"
    },
    {
      "inputs": [],
      "name": "getNumPlayers",
      "outputs": [
        {
          "internalType": "uint256",
          "name": "",
          "type": "uint256"
        }
      ],
      "stateMutability": "view",
      "type": "function"
    },
    {
      "inputs": [],
      "name": "getNumWords",
      "outputs": [
        {
          "internalType": "uint256",
          "name": "",
          "type": "uint256"
        }
      ],
      "stateMutability": "pure",
      "type": "function"
    },
    {
      "inputs": [
        {
          "internalType": "uint256",
          "name": "index",
          "type": "uint256"
        }
      ],
      "name": "getPlayer",
      "outputs": [
        {
          "internalType": "address",
          "name": "",
          "type": "address"
        }
      ],
      "stateMutability": "view",
      "type": "function"
    },
    {
      "inputs": [],
      "name": "getRaffleState",
      "outputs": [
        {
          "internalType": "enum Raffle.RaffleState",
          "name": "",
          "type": "uint8"
        }
      ],
      "stateMutability": "view",
      "type": "function"
    },
    {
      "inputs": [],
      "name": "getRecentWinner",
      "outputs": [
        {
          "internalType": "address",
          "name": "",
          "type": "address"
        }
      ],
      "stateMutability": "view",
      "type": "function"
    },
    {
      "inputs": [],
      "name": "getRequestConfirmations",
      "outputs": [
        {
          "internalType": "uint256",
          "name": "",
          "type": "uint256"
        }
      ],
      "stateMutability": "pure",
      "type": "function"
    },
    {
      "inputs": [
        {
          "internalType": "bytes",
          "name": "",
          "type": "bytes"
        }
      ],
      "name": "performUpkeep",
      "outputs": [],
      "stateMutability": "nonpayable",
      "type": "function"
    },
    {
      "inputs": [
        {
          "internalType": "uint256",
          "name": "requestId",
          "type": "uint256"
        },
        {
          "internalType": "uint256[]",
          "name": "randomWords",
          "type": "uint256[]"
        }
      ],
      "name": "rawFulfillRandomWords",
      "outputs": [],
      "stateMutability": "nonpayable",
      "type": "function"
    }
  ],
  "bytecode": "0x6101606040523480156200001257600080fd5b506040516200178c3803806200178c833981810160405281019062000038919062000294565b858073ffffffffffffffffffffffffffffffffffffffff1660808173ffffffffffffffffffffffffffffffffffffffff1681525050508460a081815250508573ffffffffffffffffffffffffffffffffffffffff1660c08173ffffffffffffffffffffffffffffffffffffffff16815250508360e081815250508267ffffffffffffffff166101008167ffffffffffffffff16815250508163ffffffff166101208163ffffffff16815250506000600160146101000a81548160ff021916908360018111156200010d576200010c62000330565b5b0217905550426002819055508061014081815250505050505050506200035f565b600080fd5b600073ffffffffffffffffffffffffffffffffffffffff82169050919050565b6000620001608262000133565b9050919050565b620001728162000153565b81146200017e57600080fd5b50565b600081519050620001928162000167565b92915050565b6000819050919050565b620001ad8162000198565b8114620001b957600080fd5b50565b600081519050620001cd81620001a2565b92915050565b6000819050919050565b620001e881620001d3565b8114620001f457600080fd5b50565b6000815190506200020881620001dd565b92915050565b600067ffffffffffffffff82169050919050565b6200022d816200020e565b81146200023957600080fd5b50565b6000815190506200024d8162000222565b92915050565b600063ffffffff82169050919050565b6200026e8162000253565b81146200027a57600080fd5b50565b6000815190506200028e8162000263565b92915050565b60008060008060008060c08789031215620002b457620002b36200012e565b5b6000620002c489828a0162000181565b9650506020620002d789828a01620001bc565b9550506040620002ea89828a01620001f7565b9450506060620002fd89828a016200023c565b93505060806200031089828a016200027d565b92505060a06200032389828a01620001bc565b9150509295509295509295565b7f4e487b7100000000000000000000000000000000000000000000000000000000600052602160045260246000fd5b60805160a05160c05160e0516101005161012051610140516113c4620003c860003960006107ac0152600061065f0152600061063c0152600061061b015260006105df0152600081816102b401526103b10152600081816102f1015261034501526113c46000f3fe6080604052600436106100a75760003560e01c8063473f1ddc11610064578063473f1ddc1461018957806353a2c19a146101b457806355c9e926146101df5780635f1b0fd81461020a5780636e04ff0d14610235578063e55ae4e814610273576100a7565b806309bc33a7146100ac578063115cbaf5146100d75780631fe543e3146101025780632cfcc5391461012b578063320229eb146101355780634585e33b14610160575b600080fd5b3480156100b857600080fd5b506100c16102b0565b6040516100ce9190610b4e565b60405180910390f35b3480156100e357600080fd5b506100ec6102d8565b6040516100f99190610be0565b60405180910390f35b34801561010e57600080fd5b5061012960048036038101906101249190610d94565b6102ef565b005b6101336103af565b005b34801561014157600080fd5b5061014a61051e565b6040516101579190610b4e565b60405180910390f35b34801561016c57600080fd5b5061018760048036038101906101829190610e4b565b610528565b005b34801561019557600080fd5b5061019e610718565b6040516101ab9190610ed9565b60405180910390f35b3480156101c057600080fd5b506101c9610742565b6040516101d69190610b4e565b60405180910390f35b3480156101eb57600080fd5b506101f4610751565b6040516102019190610b4e565b60405180910390f35b34801561021657600080fd5b5061021f61075d565b60405161022c9190610b4e565b60405180910390f35b34801561024157600080fd5b5061025c60048036038101906102579190610fa9565b61076a565b60405161026a92919061108c565b60405180910390f35b34801561027f57600080fd5b5061029a600480360381019061029591906110bc565b610816565b6040516102a79190610ed9565b60405180910390f35b60007f0000000000000000000000000000000000000000000000000000000000000000905090565b6000600160149054906101000a900460ff16905090565b7f000000000000000000000000000000000000000000000000000000000000000073ffffffffffffffffffffffffffffffffffffffff163373ffffffffffffffffffffffffffffffffffffffff16146103a157337f00000000000000000000000000000000000000000000000000000000000000006040517f1cf993f40000000000000000000000000000000000000000000000000000000081526004016103989291906110e9565b60405180910390fd5b6103ab828261085d565b5050565b7f0000000000000000000000000000000000000000000000000000000000000000341015610409576040517f066d781f00000000000000000000000000000000000000000000000000000000815260040160405180910390fd5b6000600181111561041d5761041c610b69565b5b600160149054906101000a900460ff16600181111561043f5761043e610b69565b5b14610476576040517f1425571c00000000000000000000000000000000000000000000000000000000815260040160405180910390fd5b6000339080600181540180825580915050600190039060005260206000200160009091909190916101000a81548173ffffffffffffffffffffffffffffffffffffffff021916908373ffffffffffffffffffffffffffffffffffffffff1602179055503373ffffffffffffffffffffffffffffffffffffffff167f634f3211e3a4e43fee5a21ad9f87ca153b300fc78b1c557a2057dbe9c63bcb4760405160405180910390a2565b6000600254905090565b60006105426040518060200160405280600081525061076a565b509050806105b15747600080549050600160149054906101000a900460ff16600181111561057357610572610b69565b5b6040517f584327aa0000000000000000000000000000000000000000000000000000000081526004016105a893929190611112565b60405180910390fd5b60018060146101000a81548160ff021916908360018111156105d6576105d5610b69565b5b021790555060007f000000000000000000000000000000000000000000000000000000000000000073ffffffffffffffffffffffffffffffffffffffff16635d3b1d307f00000000000000000000000000000000000000000000000000000000000000007f000000000000000000000000000000000000000000000000000000000000000060037f000000000000000000000000000000000000000000000000000000000000000060016040518663ffffffff1660e01b81526004016106a09594939291906111c1565b6020604051808303816000875af11580156106bf573d6000803e3d6000fd5b505050506040513d601f19601f820116820180604052508101906106e39190611229565b9050807fcd6e45c8998311cab7e9d4385596cac867e20a0587194b954fa3a731c93ce78b60405160405180910390a250505050565b6000600160009054906101000a900473ffffffffffffffffffffffffffffffffffffffff16905090565b6000600163ffffffff16905090565b60008080549050905090565b6000600361ffff16905090565b60006060600080600181111561078357610782610b69565b5b600160149054906101000a900460ff1660018111156107a5576107a4610b69565b5b14905060007f0000000000000000000000000000000000000000000000000000000000000000600254426107d99190611285565b119050600080600080549050119050600080471190508380156107f95750825b80156108025750815b801561080b5750805b955050505050915091565b600080828154811061082b5761082a6112b9565b5b9060005260206000200160009054906101000a900473ffffffffffffffffffffffffffffffffffffffff169050919050565b6000808054905082600081518110610878576108776112b9565b5b602002602001015161088a9190611317565b905060008082815481106108a1576108a06112b9565b5b9060005260206000200160009054906101000a900473ffffffffffffffffffffffffffffffffffffffff16905080600160006101000a81548173ffffffffffffffffffffffffffffffffffffffff021916908373ffffffffffffffffffffffffffffffffffffffff1602179055506000600160146101000a81548160ff0219169083600181111561093557610934610b69565b5b0217905550600067ffffffffffffffff81111561095557610954610c51565b5b6040519080825280602002602001820160405280156109835781602001602082028036833780820191505090505b5060009080519060200190610999929190610a8e565b504260028190555060008173ffffffffffffffffffffffffffffffffffffffff16476040516109c790611379565b60006040518083038185875af1925050503d8060008114610a04576040519150601f19603f3d011682016040523d82523d6000602084013e610a09565b606091505b5050905080610a44576040517fa1d04b3900000000000000000000000000000000000000000000000000000000815260040160405180910390fd5b8173ffffffffffffffffffffffffffffffffffffffff167f5b690ec4a06fe979403046eaeea5b3ce38524683c3001f662c8b5a829632f7df60405160405180910390a25050505050565b828054828255906000526020600020908101928215610b07579160200282015b82811115610b065782518260006101000a81548173ffffffffffffffffffffffffffffffffffffffff021916908373ffffffffffffffffffffffffffffffffffffffff16021790555091602001919060010190610aae565b5b509050610b149190610b18565b5090565b5b80821115610b31576000816000905550600101610b19565b5090565b6000819050919050565b610b4881610b35565b82525050565b6000602082019050610b636000830184610b3f565b92915050565b7f4e487b7100000000000000000000000000000000000000000000000000000000600052602160045260246000fd5b60028110610ba957610ba8610b69565b5b50565b6000819050610bba82610b98565b919050565b6000610bca82610bac565b9050919050565b610bda81610bbf565b82525050565b6000602082019050610bf56000830184610bd1565b92915050565b6000604051905090565b600080fd5b600080fd5b610c1881610b35565b8114610c2357600080fd5b50565b600081359050610c3581610c0f565b92915050565b600080fd5b6000601f19601f8301169050919050565b7f4e487b7100000000000000000000000000000000000000000000000000000000600052604160045260246000fd5b610c8982610c40565b810181811067ffffffffffffffff82111715610ca857610ca7610c51565b5b80604052505050565b6000610cbb610bfb565b9050610cc78282610c80565b919050565b600067ffffffffffffffff821115610ce757610ce6610c51565b5b602082029050602081019050919050565b600080fd5b6000610d10610d0b84610ccc565b610cb1565b90508083825260208201905060208402830185811115610d3357610d32610cf8565b5b835b81811015610d5c5780610d488882610c26565b845260208401935050602081019050610d35565b5050509392505050565b600082601f830112610d7b57610d7a610c3b565b5b8135610d8b848260208601610cfd565b91505092915050565b60008060408385031215610dab57610daa610c05565b5b6000610db985828601610c26565b925050602083013567ffffffffffffffff811115610dda57610dd9610c0a565b5b610de685828601610d66565b9150509250929050565b600080fd5b60008083601f840112610e0b57610e0a610c3b565b5b8235905067ffffffffffffffff811115610e2857610e27610df0565b5b602083019150836001820283011115610e4457610e43610cf8565b5b9250929050565b60008060208385031215610e6257610e61610c05565b5b600083013567ffffffffffffffff811115610e8057610e7f610c0a565b5b610e8c85828601610df5565b92509250509250929050565b600073ffffffffffffffffffffffffffffffffffffffff82169050919050565b6000610ec382610e98565b9050919050565b610ed381610eb8565b82525050565b6000602082019050610eee6000830184610eca565b92915050565b600080fd5b600067ffffffffffffffff821115610f1457610f13610c51565b5b610f1d82610c40565b9050602081019050919050565b82818337600083830152505050565b6000610f4c610f4784610ef9565b610cb1565b905082815260208101848484011115610f6857610f67610ef4565b5b610f73848285610f2a565b509392505050565b600082601f830112610f9057610f8f610c3b565b5b8135610fa0848260208601610f39565b91505092915050565b600060208284031215610fbf57610fbe610c05565b5b600082013567ffffffffffffffff811115610fdd57610fdc610c0a565b5b610fe984828501610f7b565b91505092915050565b60008115159050919050565b61100781610ff2565b82525050565b600081519050919050565b600082825260208201905092915050565b60005b8381101561104757808201518184015260208101905061102c565b60008484015250505050565b600061105e8261100d565b6110688185611018565b9350611078818560208601611029565b61108181610c40565b840191505092915050565b60006040820190506110a16000830185610ffe565b81810360208301526110b38184611053565b90509392505050565b6000602082840312156110d2576110d1610c05565b5b60006110e084828501610c26565b91505092915050565b60006040820190506110fe6000830185610eca565b61110b6020830184610eca565b9392505050565b60006060820190506111276000830186610b3f565b6111346020830185610b3f565b6111416040830184610b3f565b949350505050565b6000819050919050565b61115c81611149565b82525050565b600067ffffffffffffffff82169050919050565b61117f81611162565b82525050565b600061ffff82169050919050565b61119c81611185565b82525050565b600063ffffffff82169050919050565b6111bb816111a2565b82525050565b600060a0820190506111d66000830188611153565b6111e36020830187611176565b6111f06040830186611193565b6111fd60608301856111b2565b61120a60808301846111b2565b9695505050505050565b60008151905061122381610c0f565b92915050565b60006020828403121561123f5761123e610c05565b5b600061124d84828501611214565b91505092915050565b7f4e487b7100000000000000000000000000000000000000000000000000000000600052601160045260246000fd5b600061129082610b35565b915061129b83610b35565b92508282039050818111156112b3576112b2611256565b5b92915050565b7f4e487b7100000000000000000000000000000000000000000000000000000000600052603260045260246000fd5b7f4e487b7100000000000000000000000000000000000000000000000000000000600052601260045260246000fd5b600061132282610b35565b915061132d83610b35565b92508261133d5761133c6112e8565b5b828206905092915050565b600081905092915050565b50565b6000611363600083611348565b915061136e82611353565b600082019050919050565b600061138482611356565b915081905091905056fea2646970667358221220881c0265013dd700f440c01f6d891688420bd498695dbe64184574b879d08b7c64736f6c63430008110033",
  "linkReferences": {},
  "deployedLinkReferences": {}
}